:020000040000FA
:0400000023EF00F0FA
:100008001782FACF06F0FBCF07F0F2A80EEF00F048
:1000180010EF00F01DEF00F0F2A215EF00F017EF5F
:1000280000F01DEF00F025EC00F01DEF00F01DEFD3
:1000380000F007C0FBFF06C0FAFF1792110095EF0A
:1000480001F0030E026EE80E016E2DEC01F0000EB9
:10005800026E000E016E15EC01F0A30E056E550E32
:10006800E82EFED7052EFCD700F0A30E056E550E20
:10007800E82EFED7052EFCD700F0A30E056E550E10
:10008800E82EFED7052EFCD700F0F292CCEC00F05B
:1000980012000C6E0CC00AF00A460A46C2500A1832
:1000A800830B0A18C26EC280C2825BEF00F0C2B234
:1000B80060EF00F062EF00F05BEF00F064EF00F03B
:1000C800C4500B6E0A6AC3500A24086E000E0B2037
:1000D800096E6FEF00F0120045EC01F0F28E000E91
:1000E8004DEC00F008C00DF009C00EF00DC00FF087
:1000F8000EC010F00FC008F010C009F0FDEC00F0C1
:100108000FC008F010C009F0E5EC00F073EF00F044
:1001180073EF00F023EF00F0000E8D6E000E8C6E72
:10012800000E896E000E8A6E000E8B6E070E966E9C
:1001380092689368F80E946EDF0E956E0F013B6916
:10014800FC0E3A6F380E396F070E3C6F2E0E386F63
:10015800000E616EF18E1200F292F18C760E086E2E
:10016800030E096EB4EC01F0F288F090F18A000EEB
:10017800086E000E096EAFEC01F0F086F092F1887F
:10018800000E086E000E096EAAEC01F0F08812004D
:1001980015501610D8B4D3EF00F0D5EF00F0E4EF07
:1001A80000F002D8E2EF00F00500FA6E1550FD6E7F
:1001B8001650FE6EF850FF6EFA501200E4EF00F091
:1001C800120008C00AF009C00BF0D8900B320A32AE
:1001D800D8900B320A320A50676E08C00AF0030E34
:1001E8000A160A3AF00E0A166650CF0B0A10666E07
:1001F800120008C00AF009C00BF0D8900B320A327E
:10020800D8900B320A320A50BE6E08C00AF0030EAC
:100218000A160A3AF00E0A16BD50CF0B0A10BD6E28
:10022800120001C003F002C004F0D8900432033277
:10023800D890043203320350676E01C003F0030EF6
:100248000316033AF00E03166650CF0B0310666EC2
:10025800120001C003F002C004F0D8900432033247
:10026800D890043203320350BE6E01C003F0030E6F
:100278000316033AF00E0316BD50CF0B0310BD6EE4
:100288001200B9EC01F090EC00F0A3EC01F05AEC8C
:1002980001F08DEC01F085EC01F07AEC01F06AECEC
:1002A80001F09CEC01F0B0EC00F01200BC0E666EA0
:1002B800000E646E800E656E030E636E000E686E2F
:1002C8007F0E676EE70E0F0149171200BC0EBD6E58
:1002D800000EB66E800EB76E030EB96E000EBF6EBE
:1002E8007F0EBE6EFC0E0F0149171200010EC26E82
:1002F800000EC16E900EC06E000EC36E000EC46E6E
:100308001200000E0F01546F000E556F000E566F4D
:100318001200000E0F01576F000E586F000E596F34
:10032800120017901792000EF86E000170EF00F09F
:10033800BB68000EBC6E9E92040EBA6E1200300EA0
:10034800D36E040ED26E000E9B6E120008C011F020
:1003580009C012F0120008C013F009C014F012000E
:1003680008C015F009C016F01200D09E1200120045
:020000040020DA
:08000000FFFFFFFFFFFFFFFF00
:020000040030CA
:0E000000FF281F3CFF9F85FF0FC00FE00F4041
:00000001FF
