:020000040000FA
:0400000062EF7FF03C
:10FEC400000190EF7FF071EC7FF06AEC7FF012009C
:10FED400300ED36E040ED26E000E9B6E1200000E16
:10FEE4008D6E000E8C6E000E896E000E8A6E000EF2
:10FEF4008B6E070E966ECF0E926E9368946895681B
:10FF04000F013B69DC0E3A6F2F0E396F070E3C6F01
:10FF14002F0E386F000E616EF18E120065EC7FF0CB
:10FF240081B897EF7FF09BEF7FF0016A012A9CEF85
:10FF34007FF0016A0150026E036A82BAA4EF7FF077
:10FF4400A8EF7FF0016A012AA9EF7FF0016A01504E
:10FF5400046E056A8988898AB0EF7FF081B8B5EFAD
:10FF64007FF0B9EF7FF0016A012ABAEF7FF0016AEE
:10FF74000150026E036A82BAC2EF7FF0C6EF7FF0CF
:10FF8400016A012AC7EF7FF0016A0150046E056A15
:10FF940002500310D8A4D1EF7FF0D3EF7FF0D6EF57
:10FFA4007FF08998D6EF7FF002040310D8A4DDEF28
:10FFB4007FF0DFEF7FF0E2EF7FF08988E2EF7FF000
:10FFC40004500510D8A4E9EF7FF0EBEF7FF0EEEFDB
:10FFD4007FF0899AEEEF7FF004040510D8A4F5EFC2
:10FFE4007FF0F7EF7FF0B0EF7FF0898AB0EF7FF01A
:0CFFF400B0EF7FF0B0EF7FF000EF00F006
:020000040020DA
:08000000FFFFFFFFFFFFFFFF00
:020000040030CA
:0E000000FF281F3CFFBF85FF0FC00FE00F4021
:00000001FF
