:020000040000FA
:040000004FEF7FF04F
:10FE9E000001A3EF7FF0300ED36E040ED26E000E73
:10FEAE009B6E1200BB68000EBC6E9E92040EBA6E64
:10FEBE001200000E0F01546F000E556F000E566F9C
:10FECE0012000C0E0F01576F000E586F000E596F77
:10FEDE00FC0E48171200010EC26E000EC16E8C0E83
:10FEEE00C06E000EC36E000EC46E1200BEEC7FF02C
:10FEFE0052EC7FF068EC7FF059EC7FF060EC7FF015
:10FF0E0072EC7FF0120001C003F002C004F0D89032
:10FF1E0004320332D8900432033203500F01586F6B
:10FF2E0001C003F0030E0316033AF00E03165751E9
:10FF3E00CF0B0310576F12007DEC7FF0A7EF7FF011
:10FF4E00000EDDEC7FF001C008F002C009F008C021
:10FF5E0006F009C007F006C001F007C002F08AECF7
:10FF6E007FF0A7EF7FF0A7EF7FF000EF00F0000E1D
:10FF7E008D6E000E8C6E000E896E000E8A6E000E57
:10FF8E008B6E070E966E926893689468FD0E956E52
:10FF9E000F013B69FC0E3A6F3F0E396F070E3C6F37
:10FFAE002E0E386F000E616EF18E1200056E05C0BA
:10FFBE0003F003460346C2500318830B0318C26EA8
:10FFCE00C280C282EBEF7FF0C2B2F0EF7FF0F2EFB1
:10FFDE007FF0EBEF7FF0F4EF7FF0C450046E036A16
:10FFEE00C3500324016E000E0420026EFFEF7FF05B
:02FFFE001200EF
:020000040020DA
:08000000FFFFFFFFFFFFFFFF00
:020000040030CA
:0E000000FF281F3CFFBF85FF0FC00FE00F4021
:00000001FF
