:020000040000FA
:0400000087EF7FF017
:10FF0E000001B6EF7FF096EC7FF08FEC7FF01200E1
:10FF1E00300ED36E040ED26E000E9B6E1200000ECB
:10FF2E008D6E000E8C6E000E896E000E8A6E000EA7
:10FF3E008B6E070E966E7F0E926E9368000E946E09
:10FF4E0095680F013B69FC0E3A6F2F0E396F070E45
:10FF5E003C6F2F0E386F000E616EF18E12008AEC20
:10FF6E007FF0BAEF7FF00F0E8B6E81B8C1EF7FF08E
:10FF7E00C5EF7FF0016A012AC6EF7FF0016A0150DA
:10FF8E00026E036AEFEF7FF081B8D0EF7FF0D4EF0F
:10FF9E007FF0016A012AD5EF7FF0016A0150026EEF
:10FFAE00036A8BAEDDEF7FF0DFEF7FF0E2EF7FF0E5
:10FFBE008B80E2EF7FF08B508B248B6E210E016EC7
:10FFCE00760EE82EFED7012EFCD700D0EFEF7FF095
:10FFDE0002500310D8B4F6EF7FF0F8EF7FF0CBEFBE
:10FFEE007FF0BAEF7FF0BAEF7FF0BAEF7FF000EF5D
:02FFFE0000F011
:020000040020DA
:08000000FFFFFFFFFFFFFFFF00
:020000040030CA
:0E000000FF281F3CFFBF85FF0FC00FE00F4021
:00000001FF
