:020000040000FA
:0400000088EF7FF016
:10FF10000001AEEF7FF0300ED36E040ED26E000EF5
:10FF20009B6E1200000E0F01546F000E556F000EF5
:10FF3000566F1200BFEC7FF08BEC7FF092EC7FF0FD
:10FF4000A3EC7FF01200010EC26E040EC16E000E13
:10FF5000C06E000EC36E000EC46E12009AEC7FF0ED
:10FF6000B2EF7FF0090EDDEC7FF001C006F002C0B9
:10FF700007F0B2EF7FF0B2EF7FF000EF00F0000E7D
:10FF80008D6E000E8C6E000E896E000E8A6E000E55
:10FF90008B6E070E966E92689368946895680F0151
:10FFA0003B69FC0E3A6F3F0E396F050E3C6F2F0E0A
:10FFB000386F000E616EF18E1200056E05C003F001
:10FFC00003460346C2500318830B0318C26EC28057
:10FFD000C282EBEF7FF0C2B2F0EF7FF0F2EF7FF082
:10FFE000EBEF7FF0F4EF7FF0C450046E036AC35070
:10FFF0000324016E000E0420026EFFEF7FF012005A
:020000040020DA
:08000000FFFFFFFFFFFFFFFF00
:020000040030CA
:0E000000FF281F3CFFBF85FF0FC00FE00F4021
:00000001FF
